:020000040800F2
:10000000681A0020F1020008992800089D210008C4
:100010006D250008551400089D41000800000000EF
:10002000000000000000000000000000053600088D
:1000300057140008000000008D02000879380008FD
:100040000B0300080B0300080B0300080B03000858
:100050000B0300080B0300080B0300080B03000848
:100060000B0300080B0300080B0300080B03000838
:100070000B0300080B0300080B0300080B03000828
:100080000B0300080B0300080B0300080B03000818
:100090000B0300080B0300080B0300080B03000808
:1000A0000B0300080B0300080B0300088D3A00083F
:1000B0000B0300080B0300080B0300080B030008E8
:1000C0000B0300080B0300080B0300080B030008D8
:1000D0000B030008F13F00080B0300080B030008A6
:1000E000591400080B0300080B0300080B03000859
:1000F0000B0300080B0300080B0300080B030008A8
:100100000B0300080B0300080B0300080B03000897
:100110000B0300080B0300080B0300080B03000887
:100120000B0300080B0300080B0300080B03000877
:100130000B0300080B0300080B0300080B03000867
:100140000B0300080B0300080B0300080B03000857
:100150000B0300080B0300080B0300080B03000847
:100160000B0300080B0300080B0300080B03000837
:100170000B0300080B0300080B0300080B03000827
:100180000B0300080B030008DFF80CD000F00AFF97
:100190000048004729570008681A00200246D2E8A4
:1001A0004F0F411CC2E8431F03B1F8E770470246F6
:1001B00052E8000F411C42E8001303B1F8E7704712
:1001C0000246D2E84F0FC2E8431F03B1F9E7704778
:1001D000024652E8000F42E8001303B1F9E7704706
:1001E000024652E8000F830103D3BFF32F8F002094
:1001F000704700F00040084342E8000303B1F0E715
:100200007047024652E8000F800103D2BFF32F8FE0
:100210000020704742E8001303B1F3E70120704764
:10022000EFF3098141B1F1EE101A40F8041D20ED01
:10023000200A27490A6810607047B0EC200A02C8FB
:10024000E1EE101A23490A6810607047EFF310803E
:1002500072B6704780F3108870471F484FF0FF0157
:100260000170002080F309881C48012101701C489E
:100270004FF08051016062B619484FF08051016023
:10028000704717484FF080510160704772B6EFF326
:10029000098028B1203880E8F00F0D49096808600E
:1002A00000B5104880475DF804EB0F480F490A7805
:1002B0000270074807490A680260106890E8F00F6A
:1002C000203080F309884EF0F40E62B6704700BF0C
:1002D000280000203000002022ED00E00F00002068
:1002E00004ED00E07D2D00080C0000200D00002032
:1002F0000648804706480047FEE7FEE7FEE7FEE7C0
:10030000FEE7FEE7FEE7FEE7FEE7FEE765390008E9
:1003100089010008D2B201E000F8012B491EFBD28E
:1003200070470022F6E710B513460A460446194600
:10033000FFF7F0FF204610BD0FB400B58DB010A937
:1003400009900B9000914FF0FF300A9000200C9024
:1003500005480690054807906A4609A80F9900F0DD
:10036000D1FC0DB05DF814FB210D00083F0D000815
:100370002DE9FF5F1D464FF0FF3BD5E90146914651
:100380005F464FF00008A9697F1C01988847296AD9
:10039000824688470028F6D1BAF1FF3F0CD024F4FA
:1003A000C064002E19DD600614D5BAF12B0F09D0F8
:1003B000BAF12D0F0ED103E0584604B0BDE8F09F0E
:1003C00044F48064A9697F1C01988847761E8246A0
:1003D000002E02DDBAF1300F03D0B9F1000F26D0A4
:1003E00032E0A969761E44F400747F1C01988847A6
:1003F0008246002E05DDBAF1780F06D0BAF1580F0B
:1004000003D0B9F1000F10D01EE0B9F1000F02D0F7
:10041000B9F1100F18D1A969761E24F400747F1C5D
:10042000019888478246102002E0082000E00A2058
:10043000814609E008FB0908A969761E44F40074A6
:100440007F1C019888478246002E05DD49465046AC
:1004500000F043FC0028EDDAE96901988847A0051F
:1004600002D46FF00100A8E7E00725D1600613D59C
:10047000600502D5C8F1000000E0404629680A1D69
:100480002A600968220501D5087015E0220701D508
:10049000088011E008600FE02868011D29600068ED
:1004A000210502D580F8008006E0210702D5A0F8DA
:1004B000008001E0C0F8008038467EE72DE9FF4F5C
:1004C000087883B09946FF2805D0491C2D2804D010
:1004D0000024002008E000200BE00124F9E700EBF5
:1004E000800003EB4000491C0B78FF2BF7D104B1CF
:1004F000404200230293147819461D462D2C01D04A
:100500002B2C04D1521C2D2C13D000240294AA466B
:100510001478FF2C0FD00A25A3FB057801FB058179
:100520004FF0000C03FB0C11521CE3194AEB0101C4
:10053000EEE70124EAE7814453EA010002D019F50D
:10054000C87F06DA03980021C0E9001107B0BDE8B2
:10055000F08F0025AE4E2F46DFF8B882184600F027
:10056000E4FCCDE90001B9F1000002DAC9F10004B0
:1005700000E004460023A74A1AEB030B42EB045A9F
:1005800012E0E00707D02A4633463846414600F0DD
:10059000ECF9074688462A4633461046194600F0CD
:1005A000E4F905460E466410002CEAD1DDE90001AD
:1005B000B9F1000F5A46534606DA00F048FA3A46B7
:1005C000434600F044FA05E000F0CFF93A464346CE
:1005D00000F0CBF9029A0AB181F00041039AC2E916
:1005E0000001B3E72DE9FF4F1F468DB0D7E9014663
:1005F0004FF0FF382E2045464FF000090B90B969A7
:100600006D1C0E988847396A824688470028F6D1C3
:10061000BAF1FF3F0AD024F4D064002E11DDBAF104
:100620002B0F08D0BAF12D0F0BD102E0404611B0CC
:100630008DE744F48064B9696D1C0E988847824642
:10064000761E6946600501D52D2000E02B208DF82F
:10065000000001F1010B0DF1200809E0B9696D1CE2
:100660000E98884782460F9844F40074761E056001
:10067000002E02DDBAF1300FF0D00B998A453ED141
:1006800044F0800406E00F99681CA9F1010944F4C4
:1006900000740860B9696D1C761E0E988847824602
:1006A0003028F0D02BE00B998A4505D1200603D4E1
:1006B00044F08004761E18E0504604F079FB08B33D
:1006C0000DF11301761E44F400748B4508D2AAF193
:1006D00030000BF8010B200607D5A9F1010003E05B
:1006E000200602D409F101008146A00502D50F9928
:1006F000681C0860B9696D1C0E9888478246002EF8
:10070000D1DC53E0002E51DDBAF1650F02D0BAF111
:10071000450F4BD1A00549D5B9696D1C24F440742F
:10072000761E0E9888478246002E0CDD2B2804D0BA
:10073000BAF12D0F07D144F48074B9696D1C0E987D
:1007400088478246761EE00501D52D2100E02B2149
:1007500008F8011BCDF82C8021E00DF12901761E4F
:1007600044F4007488450CD2AAF1300010F0FF0068
:1007700088F8000002D10B99884509D908F10108D1
:1007800006E0E00501D5244801E042F20F70814601
:10079000B9696D1C0E98884782460F980560002E37
:1007A00004DD504604F004FB0028D6D1F9690E9808
:1007B0008847FF208BF8000088F800000020069092
:1007C00007904B466A4608A906A8FFF777FEA005E2
:1007D00002D46FF001002AE714F0240F0AD0E007DA
:1007E00014D1DDE906123868031D3B600068C0E9DA
:1007F00000120BE0DDE9060100F0DBF90146E0073D
:1008000004D13868021D3A600068016028460EE78E
:10081000000014400000F03FF1D8FFFF2DE9FE4F2B
:10082000804681EA0300C00F0C46009021F0004191
:1008300023F00045B8EB0200A94105D2404621460D
:1008400090461C460B46024623F00040104347D01A
:10085000270DC7F30A00C3F30A510290401A019012
:1008600040286BDAC3F3130040F4801B00989246D3
:1008700020B10023D2EB030A63EB0B0B019859461E
:10088000C0F14002504600F0F7F906460D465046CA
:100890005946019A00F00FFA10EB0800614100245C
:1008A00087EA115284EAE7731A4340D0009A62B390
:1008B000019A012A4FEA075215DC001B61EB020185
:1008C0004FF0004202EA0752CDE90042001C41F518
:1008D000801132462B4600F089FA03B0BDE8F08F54
:1008E00040462146F9E7001B61EB0201001C41F57F
:1008F000801300185B412018A2F5001747EB030195
:1009000040EAD570B6196D4111E06D084FEA360620
:1009100045EAC0754FEA0752001B61EB0201001C5B
:1009200041F5801149084FEA300000195141324623
:100930002B4603B0BDE8F04F00F049BA0098012201
:1009400040000023D0EB020263EBE07300982146E5
:100950004FEAE074B8EB000061EB0401E9E783F0D3
:1009600000435BE781F0004158E72DE9FE4F81EA43
:10097000030404F0004421F0004100944FF0000B08
:1009800023F0004350EA01045ED052EA03045BD036
:10099000C3F30A54C1F30A552C44A4F2F33401946E
:1009A000A0FB0254C1F3130141F48011C3F31303FC
:1009B00043F4801301FB024400FB034E840A970AB0
:1009C00044EA815447EA8357A4FB076802958D0ADD
:1009D00005FB07854FEA932C04FB0C542705029D69
:1009E0004FEA065847EA1637B5EB08056EEB070CD9
:1009F000870E920E47EA811742EA8312A7FB020193
:100A0000B6EB0B0164EB00042B0D43EA0C335E18CC
:100A100044EB1C50DA465146E7FB0201C5F31304D0
:100A20004FEA0B3343EA14534FEA0432019C43EA82
:100A30000603A4F10C040294009CCDE900B400F07C
:100A4000D5F903B0BDE8F08F00200146F9E72DE9A4
:100A5000F04D81EA030404F0004B21F000451446F8
:100A60004FF0000A23F0004150EA050220D054EA7A
:100A700001021DD0C5F30A570246C5F31303C1F3A3
:100A80001300C1F30A5640F4801543F48013A7EB1A
:100A90000608101BD64608F2FD3873EB050002D39A
:100AA00008F1010801E092185B41B8F1000F03DA88
:100AB00000200146BDE8F08D00204FF4801106466D
:100AC00084460EE0171B73EB050705D3121B63EB7F
:100AD000050306434CEA010C49084FEA300092181E
:100AE0005B4150EA0107EDD152EA030012D082EADD
:100AF000040083EA0501084305D0101BAB4106D270
:100B00000122002306E000224FF0004302E06FF0D4
:100B1000010253101AEB06004CEB085110EB0A00CF
:100B200041EB0B01BDE8F04D00F051B90EB5C10F1E
:100B300080EAE0700844CA07002140F233438DE8A0
:100B40000E000A460B4600F051F903B000BD70B527
:100B5000C1F30A5201F000450024C1F3130140F231
:100B6000FF3341F480119A4201DA002070BD40F257
:100B700033439A42A2F2334203DC524200F08BF834
:100B800000E090402C43F1D0404270BD00F00042A4
:100B900030F000400AD0C10D01F56071C0F31600BD
:100BA00042EA0151C2084007114370470020014644
:100BB000704701F0004330B421F0004150EA0102D7
:100BC00006D00A0DA2F56072C1F31301002A02DCFF
:100BD00030BC00207047440F44EAC104C100E01853
:100BE00030BC00EBC25000F0BBB830B50B4601463C
:100BF00000202022012409E021FA02F59D4205D3BC
:100C000003FA02F5491B04FA02F52844151EA2F165
:100C10000102F1DC30BD2DE9F05F0546002092466F
:100C20009B4688460646814640241BE028464146AE
:100C30004746224600F02FF853465A46C01A9141C3
:100C400010D311461846224600F016F82D1A67EB0D
:100C500001084F4622460120002100F00DF817EB55
:100C600000094E41201EA4F10104DFDC4846314654
:100C70002A464346BDE8F09F202A04DB203A00FACA
:100C800002F1002070479140C2F1200320FA03F3E3
:100C9000194390407047202A04DB203A21FA02F0E1
:100CA0000021704721FA02F3D040C2F120029140A6
:100CB000084319467047202A06DBCB17203A41FA31
:100CC00002F043EAE07306E041FA02F3D040C2F1D9
:100CD000200291400843194670473A2800D2303824
:100CE00020F02002412A01D3A2F13700884201D32B
:100CF0004FF0FF3070470000026811441378016024
:100D000018467047D16004495161044911620021BD
:100D10001161114600F05EB9F90C0008C90F000816
:100D2000426842B1016811F8013B23B1521EC0E98B
:100D30000012184670470121C160881E7047426842
:100D40005AB1C368016843B983688B4205D0491E14
:100D5000521CC0E90012002070474FF0FF3070476E
:100D60000029A8BF7047401C490008BF20F00100BF
:100D7000704710B4B0FA80FC00FA0CF050EA01049D
:100D800004BF10BC704749B1CCF1200421FA04F42F
:100D900011FA0CF118BF012121430843A3EB0C0108
:100DA000CB1D4FEA00614FEA102042BF002010BC6B
:100DB000704700EBC35010440029A4BF10BC70471B
:100DC000401C490008BF20F0010010BC704710B55E
:100DD000141E73F1000408DA401C41F1000192185E
:100DE0005B411A4301D120F0010010BD2DE9F04D07
:100DF00092469B4611B1B1FA81F202E0B0FA80F25C
:100E000020329046FFF738FF04460F4640EA0A00BA
:100E100041EA0B0153465A46084313D0114653EAA0
:100E2000010019D0C8F140025046FFF734FF0546D3
:100E30000E46504659464246FFF71EFF084305D06E
:100E4000012004E020463946BDE8F08D002005432E
:100E500046EAE0762C4337430A986305E40AA0EBA0
:100E600008000022FD0A44EA47540A3002D5002057
:100E70000146E9E7010510196941DDE90845001956
:100E80006941BDE8F04DA2E72DE9F04D00231A4677
:100E90001B1A8A4103DB00200146BDE8F08DC1F337
:100EA0000A52C1F3130141F480154FF0000BD10732
:100EB00002D100186D41521E0027044640F2FF1176
:100EC000384601EB620A3E468046024600204FF457
:100ED0008011FFF7E0FEC2197141BB1846EB01001B
:100EE000B4EB030C75EB000C04D3E41A65EB0005BE
:100EF00017460E46241908F101006D41804634283A
:100F0000E3DDF91946EB0600091BA84103D24FF0B7
:100F1000FF32134601E0002213461BEB070046EBAD
:100F20000A51BDE8F04DFFF752BF0EB540F2334213
:100F300002920022CDE900221346FFF757FF03B0CB
:100F400000BDC1F30A52C1F3130140F2FF3341F473
:100F500080119A4202DA00200146704740F2334382
:100F60009A42A2F2334202DC5242FFF794BEFFF7EC
:100F700083BE000030B5041E71F1000404DB4FF0A5
:100F80000044404264EB0101141E73F1000405DBD0
:100F90001C464FF00043524263EB0403994208BFE2
:100FA000904230BD064C074D06E0E06840F001037A
:100FB00094E8070098471034AC42F6D3FFF7E8F8FE
:100FC000085B0008285B0008C0B24FF4F05100F045
:100FD00097B900002DE9F34F8BB04FF0000801F1F5
:100FE0000C000C464FF0010B46460DF1080A01902B
:100FF0006269012101989047051E2DD0252D2CD026
:10100000216A8847C0B16269012101989047216A2D
:1010100088470028F7D1411E62690198904700E097
:10102000761CA1690B988847216A88470028F7D168
:10103000E1690B988847DBE7A1690B988847074669
:10104000A84201D1761CD3E7E1690B9888477F1C41
:1010500002D1B8F1000F6FD046E1002762693D462A
:101060003946019890472A2804D1626901210198E4
:1010700090470125DFF88492626901210198904729
:10108000A0F130010A290AD24F45E5DC07EB8701C0
:1010900000EB4107303FDFD445F01005ECE7E906EF
:1010A00001D46FF000476C280AD04C2814D068286F
:1010B00015D06A280DD074281CD07A281AD01DE0CB
:1010C00062690121019890476C2802D045F004051F
:1010D00014E045F002050DE045F020050AE06269E4
:1010E000012101989047682802D045F0080505E0E5
:1010F00045F400656269012101989047C4E90157F0
:1011000065283DD019DC58287AD00CDC452837D02A
:1011100004DC252826D0412831D131E046282FD0C3
:1011200047282CD12CE05B2877D0612828D0632871
:101130007CD0642823D15AE0D0E06F2848D008DC66
:1011400066281DD067281BD0692821D06E2816D1AB
:1011500027E0702845D0732868D0752847D07828B4
:101160000DD14DE0A1690B988847054625283FF42D
:1011700069AFE1690B9888476D1C3FF46AAFB3E033
:1011800023466A466FF001000B99FFF72BFA9EE0A9
:1011900045F040006060A80723464FF0000236D4B7
:1011A0003EE0E8077FF447AF2068011D216000683A
:1011B000290501D506701BE7290701D5068017E729
:1011C000A90703D5F117C0E9006111E706600FE731
:1011D00045F040006060A80723464FF0080216D48F
:1011E0001EE040F60E0125EA0100606016E045F0C1
:1011F00040006060A80723464FF00A0207D40FE0C2
:1012000045F040006060A80708D5234610226FF023
:1012100001000B99AFF3008059E007E0234610224C
:101220006FF001000B99FFF7A3F850E04FF00009B1
:101230004F464B46632802D05B2806D040E0E806C4
:1012400001D40120A06001273AE0626901210198E0
:1012500090475E2805D14FF001096269494601981F
:101260009047216939B900210A46534643F82120A5
:10127000491C0829FADBB0B3216969B9C11700EB31
:10128000D16253110AEB830122F01F02821A01205E
:101290000B68904003430B606269012101989047FD
:1012A0005D28E8D1B9F1000F09D00020514651F86E
:1012B0002020D24341F82020401C0828F7DB02AB55
:1012C000224600976FF001000B99AFF300800028D1
:1012D0000CDA401C08D1BBF1000F05D04FF0FF30F5
:1012E0000DB0BDE8F08FFFE74046F9E7E90701D10F
:1012F00008F1010806444FF0000B79E6CCCCCC0C89
:101300007F2801D9002208E0064A02EB5002C007FC
:10131000127800D1120902F00F020120904008401B
:1013200070470000C85A000870B58C1810F8015BAF
:1013300015F0070301D110F8013B2A1106D110F86E
:10134000012B03E010F8016B01F8016B5B1EF9D172
:101350002B0705D40023521E0DD401F8013BFAE7F8
:1013600010F8013BCB1A921C03E013F8015B01F863
:10137000015B521EF9D5A142D8D3002070BD0000F8
:10138000F0B587B00121102002F0DEF80121022023
:1013900002F0B0F8234F07220621384600F014FB74
:1013A00007221146384600F00FFBC02005900226A8
:1013B0008DF8186003218DF8191000248DF81A405B
:1013C00001258DF81B5005A9384600F0BFFA4FF4EF
:1013D000E1300190ADF80840ADF80A40ADF80C409E
:1013E000ADF810400C20ADF80E000F4C01A92046BE
:1013F00002F06EFE012240F22551204602F04DFE21
:1014000025218DF800108DF801508DF802608DF8BF
:101410000350684601F042FA0121204602F02AFEFC
:1014200007B0F0BD000402400010014070B5044652
:10143000074D09E0284602F0ADFE4021284602F0A3
:1014400025FE0028F9D0641C21780029F2D170BD56
:1014500000100140FEE770472DE9F0474FF40057B8
:10146000384600F0A7F800285ED0304C012604F181
:10147000040920784FF0804848B3D8F824504046FB
:10148000002102F0CFFB0C2089F80500201D00F0A0
:101490009BF8002020702648854229DD4F2225A197
:1014A000294800F003F9294C01222021204600F0B0
:1014B0009BFA01F087F800222021204600F094FAE0
:1014C000214855221BA1203000F0F0F823E0002134
:1014D000404602F025FD0121404602F0A3FB082012
:1014E00089F805001148001D00F06EF8267012E022
:1014F000154858220FA1401C00F0D8F8A078401CD5
:1015000000F003006080124806700F485F2209A1B6
:10151000213000F0CBF80121404602F083FB384631
:10152000BDE8F04700F040B8BDE8F0879400002027
:1015300040420F002E2E5C68617264776172655CB8
:101540006B65792E63000000C0EF030000000240CD
:101550008000002038B500F0A5FF0121880301F0CC
:10156000F3FF0D21022002F04FF80E484FF4005116
:101570000160002505710C2141710124847100F086
:1015800023F828208DF800008DF8014002208DF806
:1015900002008DF80340684601F080F90148001F01
:1015A000057038BD980000200149086070470000B0
:1015B000143C014001460020024A12680A4200D051
:1015C00001207047143C014030B51B4A8379016803
:1015D000002B2AD013688B431360111D0B6804681D
:1015E000A3430B60017911440B68046823430B602B
:1015F000114C08342168036899432160231D196840
:101600000568A94319604179102905D011440A6879
:10161000006802430A6030BD2168026811432160FE
:10162000196800680143196030BD007910440268F0
:101630008A43026030BD0000003C0140084909783F
:1016400000290AD00649C0F3C6228039C0F302201F
:10165000895CC14001F00100704700207047000024
:10166000401600202DE9F0410E4E06F11807B5692D
:1016700000F056F90446AC420BD201210A48FEF7AD
:101680009FFD30B93069401C306100210648FEF7EB
:1016900097FD21463846FEF79BFD8542E7D120465F
:1016A000BDE8F081401600206801002070B50446B6
:1016B0000D4616462046FFF7C1FF40B1FFF7D2FFA7
:1016C000A2B2EFF3058121B14FF4002102E0012025
:1016D00070BD0021114341F04074014633462A4653
:1016E0002046BDE8704000F001B800002DE9FF5F22
:1016F00081468A46934607254FF0805000EADA0675
:10170000400000EA9B074100039801EA5008224884
:10171000FEF74DFD214900F03F0201EB0214810963
:101720004FF4700000EA015049EA000131433943A7
:1017300041EA080141F0406104F10C00FEF750FD60
:1017400041011FD580F0806080F0004101F0004031
:101750002AF00042024322602BF000420243626002
:10176000039A22F000420243A26004F10C00FEF74B
:1017700048FD50B10848001DFEF719FD012004B0D6
:10178000BDE8F09F6D1E002DC1D103480830FEF763
:101790000EFD0020F3E7000044160020C0110020D9
:1017A0002DE9F043FF2901D2FF2A02D30020BDE832
:1017B000F08300260024DFF83C804FF0010909FA8D
:1017C00004F3034210D00B460CE006EBD30503F004
:1017D000070C18F8057009FA0CFC47EA0C0708F822
:1017E00005705B1C9342F0D92036641C042CE6D3B0
:1017F0000120DCE7C01500202DE9F04180460F46AE
:10180000344D00262E708021A5F18000FEF789FD61
:101810001821314803F02AFF30492B6A01228B42FC
:1018200003D029626880EA6108E06988814202D0B9
:101830006880EA6102E0E869401CE861E869012823
:1018400030D00020264B03EB0011CA68540102D5AA
:1018500022F04062CA60401C4028F4D3E8690128A5
:101860002AD000F063F80446CCB1FE2200214046A5
:10187000FFF796FFEF2211460F20FFF791FFFE22A0
:1018800011460420FFF78CFFFFF7ECFE01461548D8
:101890006B69EA69FFF72AFF0FB100F029F82046CB
:1018A000BDE8F0816E706E60AE60EE604FF48061F6
:1018B0000B48FEF736FDD1E700F038F8044620006B
:1018C00001D0094800E000206861AE612E61074840
:1018D0000670C9E740160020C05900086B27A5E133
:1018E000C011002000FF000380DE8002680100209C
:1018F00010B509480178002901D0012010BD01214F
:101900000170FFF7AFFE014600231A460348FFF7B8
:10191000EDFE012010BD00004016002001FF000375
:101920000148406870470000001000E00548016869
:1019300041F0807101600448016841F001010160DB
:1019400001207047FCED00E0001000E02DE9F041BF
:10195000002201274FF0030C07FA02F50B682B4019
:10196000AB422CD1066853000CFA03F4A643066080
:101970000E79D0F800809E4046EA080606600E798F
:10198000012E01D0022E12D18668A64386604E79C0
:10199000D0F808809E4046EA080686604668AE4356
:1019A000466045688E799640B6B235434560C56855
:1019B000A543C560CC799C40C3681C43C460521CDD
:1019C000102AC9D3BDE8F08110B54B07DB0E9A4051
:1019D000C90800EB8100016A0F249C40A143016209
:1019E000016A1143016210BD002A01D001837047D2
:1019F000418370472DE9F04705462DED068B89465A
:101A0000F6EE000ADFF820A49AED020A20EE208A02
:101A10000AF11C04F6EE000A94ED020A94ED021A93
:101A200040EE410A94ED030A94ED031A40EE410A98
:101A3000FE48B0EE00AA94ED021A90ED000A94ED73
:101A4000032AFB4820EE0A0AD4ED022AFA4E60EE81
:101A5000801AD4ED010A20EE811AD4ED000A00EEBE
:101A6000821AD0ED000AB0EE002AF24860EE820A37
:101A700094ED032A40EE811A94ED011A21EE022A18
:101A800094ED001A01EE622A90ED001AF0EE002AA1
:101A900021EE221A41EE021AC6ED001AD4ED011A07
:101AA00094ED022AD4ED032A94ED013A61EE821AF4
:101AB00094ED002A42EE621AD4ED012AB6EE002A15
:101AC00002EEC32AD4ED032A94ED033A61EE801AA4
:101AD00002EEC32AD4ED032A94ED013A40EE821AB5
:101AE00094ED022A22EE222AD4ED002A02EE832A65
:101AF00041EE021AC6ED011AD4ED001A94ED022A45
:101B0000D4ED032A61EE821A94ED012A42EE221AE4
:101B100094ED032AD4ED012A21EE800AD4ED021AB5
:101B200061EE821A94ED002A42EE621A94ED012AC7
:101B300000EEA10AD4ED011AF6EE000A41EEC20A47
:101B4000D4ED021A94ED022A41EEC20A01EE200AF7
:101B500086ED020AB5F90C0000EE100AB5F90E0088
:101B600000EE900AB8EEC00AB8EEE01A00EE900A55
:101B700020EE000AB5F91000F8EEE00A01EE200AA6
:101B800000EE900AB8EEE01A00EE900AF8EEE00AD5
:101B900001EE200A10EE100AFEF7F8FF41EC100BE0
:101BA00002F03EFF53EC102B9FEDA49B51EC190B60
:101BB000FEF74DFFFEF7FDFF00EE100A504680EDE8
:101BC000060AB5F90C0006F10C0700EE900AF8EED3
:101BD000E00A60EE800AC7ED000AB5F90E0000EEDB
:101BE000900AF8EEE00A60EE800AC7ED010AB5F946
:101BF000100000EE900AF8EEE00A20EE800A87ED71
:101C0000020A94ED010AD4ED030A94ED021AA6F13A
:101C1000300820EE200AD4ED000A00EEC10AF0EEF2
:101C2000000A20EE200A88ED000A94ED000AD4EDA7
:101C3000010A94ED031A20EE200AD4ED020A00EE08
:101C4000810AF0EE000A20EE200A88ED010A94EDE8
:101C5000010AD4ED010A94ED021AF7EE008A20EE93
:101C6000200AD4ED020A00EE810AB0EE001AF0EE6E
:101C7000680A40EE410AC8ED020A7249B1F9000053
:101C800000EE100AB1F9020000EE900AB8EEC00AA8
:101C9000B8EEE01A00EE900A20EE000AB1F9040056
:101CA000F8EEE00A01EE200A00EE900AB8EEE01A23
:101CB00000EE900AF8EEE00A01EE200A10EE100A9B
:101CC000FEF764FF41EC100B02F0AAFE53EC102B60
:101CD00051EC190BFEF7BBFEFEF76BFF00EE100A8E
:101CE000504680ED050AB5F9000000EE900AA6F115
:101CF0002400F8EEE00A60EE800AC0ED000AB5F9B3
:101D0000021000EE901AF8EEE00A60EE800AC0EDD4
:101D1000010AB5F9041000EE901AF8EEE00A20EE80
:101D2000800A80ED020A90ED010AD8ED020A98EDD2
:101D3000011A514660EE200A90ED020A96ED012A42
:101D400040EE410A91ED000A96ED021A60EE801A0B
:101D5000D7ED010A20EE811AD7ED020A00EEC21A71
:101D6000D1ED010A00F1180140EE811AC1ED001A0F
:101D700090ED021AD8ED001A98ED022AD6ED022A4B
:101D800021EE211AD0ED001A01EEC21AD7ED021A87
:101D900096ED002A61EE821A97ED002A21EE001AD4
:101DA00042EE621A00EEA11A81ED011A90ED001ABE
:101DB000D8ED011A98ED002A21EE211AD0ED011A72
:101DC00001EEC21AD6ED011A96ED002A21EE001A94
:101DD00097ED000A20EE210AD7ED011A01EEC20AA2
:101DE00000EE801A81ED021AA0F118025046D2EDE1
:101DF000000A91ED001A90ED040A41EE000AC2EDCE
:101E0000000AD2ED010A91ED011A41EE000AC2ED7D
:101E1000010AD2ED020A91ED021A41EE000AC2ED6A
:101E2000020AB5F906000FE018010020A800002002
:101E3000AC000020B0000020D41000200000000002
:101E40000000F03F4C10002000EE100AB8EEC00A6F
:101E5000DFEDB20A5046D1ED001A20EE201A90EDC7
:101E6000030AA1F10C0000EE211AD2ED001A31EEA6
:101E7000211A80ED001AB5F90830D1ED011A01EEF2
:101E8000103AB8EEC11A21EE201A00EE211AD2ED56
:101E9000011A31EE211A80ED011AB5F90A3001EE6E
:101EA000103AB8EEC11A61EE200A91ED021A40EE26
:101EB000010A92ED020A30EE800A80ED020A94EDEA
:101EC000010AD0ED000A90ED011AB1EE400A20EEB1
:101ED000200AD4ED020A00EEC10AD4ED030A90ED07
:101EE000021A00EEC10A20EE081A94ED000AD0EDA5
:101EF000000AD0ED011A20EE200AD4ED030A00EE0C
:101F0000E10AD4ED020AD0ED021A00EEA10A20EE99
:101F1000080AD4ED030AD0ED001A90ED012A60EE14
:101F2000A10AD4ED001A41EE820AD4ED011A90ED17
:101F3000022A41EEC20A60EE880AD4ED011A90ED41
:101F4000012AD0ED002A61EE821A94ED022A42EEB7
:101F5000621A94ED002AD0ED022A42EE221A61EEB6
:101F6000881A94ED002A32EE011A84ED001A94EDDD
:101F7000011A31EE000A84ED010A94ED020A30EEF6
:101F8000200A84ED020A94ED030A30EE210A84ED62
:101F9000030A94ED000AD4ED000A94ED011A20EE34
:101FA000200AD4ED010A00EE810AD4ED020A94ED74
:101FB000021A00EE810AD4ED030A94ED031A00EE32
:101FC000810A10EE100AFEF7E1FD41EC100B02F061
:101FD00027FD53EC102B51EC190BFEF738FDFEF7E3
:101FE000E8FD00EE100AD4ED000A60EE800AC4EDB0
:101FF000000AD4ED010A60EE800AC4ED010AD4EDB6
:10200000020A60EE800AC4ED020AD4ED030A20EE53
:10201000800A84ED030AB5F90A0000EE100AB8EE52
:10202000C00ADFED3F0A20EE200A10EE100AB0F1E0
:102030007E5F04DC10EE100A10F1814F07D9D9ED54
:10204000020A9AED021A40EE410AC9ED020A94ED25
:10205000000AD4ED020A94ED031A20EE0A0A20EEDB
:10206000200AD4ED010A60EE8A0A00EEC10A10EEE1
:10207000100AFEF78BFD41EC100B02F0BDF89FED4E
:10208000291B51EC100B53EC112BFEF76EFCFEF7E5
:1020900090FDC9F8040094ED010AD4ED010A20EE88
:1020A0000A0A40EE608A94ED020AD4ED020A20EE9C
:1020B0000A0A40EE608A18EE900AFEF767FD94ED7A
:1020C000020AD4ED030A94ED011A20EE0A0A41EC4B
:1020D000180B20EE200AD4ED000A60EE8A0A00EE0A
:1020E000810A10EE100AFEF751FD41EC100BB0EE24
:1020F000481AF0EE681A02F09BFB9FED0C1B51ECA6
:10210000100B53EC112BFEF730FCFEF752FDC9F813
:102110000000BDEC068BBDE8F08700002E9E8B3AD8
:10212000F6FF793D00000020DCA54CC00000002037
:10213000DCA54C4010B500226A21D02000F082F9C5
:1021400002223721D02000F07DF9702200213C20AE
:1021500000F078F9202201213C2000F073F90022E0
:102160000221BDE810403C2000F06CB91CB50446CB
:10217000032106236A463C2000F008F900216A4644
:1021800002EB410012F81130407800EB032324F8F1
:102190001130491CC9B20329F2D31CBDFEE7002946
:1021A00004D0018841F4806101807047018821F4E6
:1021B000806101807047002904D0018841F001014D
:1021C00001807047018821F0010101807047000003
:1021D00070B586B0224D284600F048F80121022053
:1021E00001F088F90121480501F092F94FF440719E
:1021F000049103218DF8151002218DF8141001218E
:102200008DF8161000248DF81740164E04A930469C
:10221000FFF79CFB042208213046FFF7D5FB042280
:1022200009213046FFF7D0FBADF804404BF6FF71B3
:10223000ADF806102815ADF80A000001ADF80C0045
:102240000948009001212846FFF7B5FF6946284656
:1022500000F03EF801212846FFF7A1FF06B070BD4F
:102260000054004000040240801A060010B51549D1
:1022700088420AD101214C05204601F057F9204639
:10228000BDE81040002101F051B90F4988420AD140
:1022900001218C05204601F049F92046BDE8104097
:1022A000002101F043B9094988420AD10121CC0536
:1022B000204601F03BF92046BDE81040002101F026
:1022C00035B910BD0054004000580040005C00408B
:1022D0007FB504460D46A08820F03F06684601F011
:1022E00041F902982749B0FBF1F189B20E43A6806B
:1022F000228822F001022280234B2A689A4209D8C0
:102300005200B0FBF2F080B2042800D20420491C35
:10231000218423E0EB88A3F53F46FF3E0BD002EB80
:10232000C20303EB0212B0FBF2F080B240F4804033
:10233000020506D007E002EB4202B0FBF2F080B2E9
:10234000F6E740F0010040F400404FF4967251432C
:102350004FF47A72B1FBF2F1491C2184A0832088EA
:1023600040F00100208020884FF6F5310840A98810
:102370006A89114301432180A88929890843208162
:102380007FBD000040420F00A08601002DE9F04310
:102390000446894615461E46294F388840F4807009
:1023A00038800321012000F0C9F80028F9D0DFF8B7
:1023B000908008F11008A8F800400721822000F062
:1023C000BDF80028F9D0A8F800900721842000F07B
:1023D000B5F80028F9D0388840F48070388003219F
:1023E000012000F0ABF80028F9D044F00100A8F873
:1023F00000000321022000F0A1F80028F9D038885D
:1024000020F400703880388840F4806038800024E0
:1024100009E00321402000F091F80028F9D0B8F835
:1024200000002855641CB442F3DB388820F4806037
:102430003880388840F400703880BDE8F0830000B0
:10244000005400402DE9F04180460F461646144CDA
:10245000208840F4807020800321012000F06EF875
:102460000028F9D00E4D1035A5F8008007218220F4
:1024700000F064F80028F9D02F800721842000F0B4
:102480005DF80028F9D02E800721842000F056F84E
:102490000028F9D0208840F400702080BDE8F08149
:1024A000005400401CB50121042001F023F84FF432
:1024B0000050009000208DF8040003208DF80500E6
:1024C00001208DF8070069460148FFF73FFA1CBD5F
:1024D0000008024010B500226B21D020FFF7B2FFA8
:1024E00001221921D020FFF7ADFF06221A21D020AA
:1024F000FFF7A8FF18221B21D020FFF7A3FF00221F
:102500001C21BDE81040D020FFF79CBF1FB504463A
:102510003B210E236A46D020FFF738FF00216A4690
:1025200002EB410012F81130407800EB032324F84D
:102530001130491CC9B20729F2D31FBD0A4A1388BA
:102540009B0702D41388DB060BD41288904304D176
:102550000548001D0088814301D0002070470120FC
:10256000704700207047000014540040FEE7000050
:1025700070B51048104C0069B0F5487F02D20120B8
:10258000207001E00020207020780C4D01280ED131
:10259000287860B90A4E012220213046FFF724FA3C
:1025A00000F010F8002220213046FFF71DFA2078B5
:1025B000287070BDE00F00209100002090000020E6
:1025C0000000024070B52548254C40F2E73582698D
:1025D000B2F57A7F11D92946204601F099FC2946A7
:1025E000204601F097FC2946204601F095FC29463B
:1025F0002046BDE8704001F091BC3B2142F20F70D3
:1026000000F08AF940F2CF763146204601F080FC96
:102610003146204601F07EFC3146204601F07CFC2C
:102620003146204601F07AFC40F62826304603F079
:1026300039F82946204601F06BFC2946204601F076
:1026400069FC2946204601F067FC2946204601F036
:1026500065FC3046BDE8704003F024B8E00F002070
:10266000000400402DE9F04126494FF47A72264ECD
:102670008969914212D9541E2146304601F048FC26
:102680002146304601F046FC2146304601F044FC2C
:1026900021463046BDE8F04101F040BC002800DA98
:1026A0000020904200DD104618490F681849C519EE
:1026B0000B681849EC1A0A68A118174C01F2E731A7
:1026C00021601D44AD1A05F2E7356560C01BC51ACF
:1026D000AD1A05F2E735A5601844104400F2E73062
:1026E000E060304601F014FC3046616801F012FCF5
:1026F0003046A16801F010FC3046E168BDE8F041C9
:1027000001F00CBCE00F0020000400404801002054
:102710004C010020500100206C00002010B52DED70
:10272000028B274C6068A0F57B70FEF7FFF99FEDE8
:10273000258B53EC182BFEF718F9FEF73AFA2349CC
:1027400008602068A0F2EA30FEF7F0F953EC182B8D
:10275000FEF70BF9FEF72DFA1D490860E0681D49E8
:10276000C01C0861A0F2E630042802D84FF47A7049
:1027700008610869A0F57A7000EE100A1648B8EEF4
:10278000C00AD0ED000A20EE200A10EE100AFEF773
:10279000FDF99FED121B53EC112BFEF7E6F8114CDF
:1027A00041EC180B2068FEF7F1F953EC182BFEF7FB
:1027B00035F8FEF7FEF92060BDEC028B10BD00007D
:1027C000E00F00207B14AE47E17AA43F60010020B7
:1027D000640100206C000020200100209A99999942
:1027E0009999993F4401002010B52748FFF78EFEC4
:1027F0002648FFF7BBFC2449A1F112000A88028099
:102800004A8842808A8882800A89C2804A890281F5
:10281000898941811D490A8882818A88C2814988C3
:1028200001820020184B19492A3B1039096831F8F8
:10283000102033F81040121B21F8102003281DD35C
:10284000C21ED2B2DFED120A0F4C9FED121A1E3CCF
:1028500004EB820231F9104092ED000A20EE010AE9
:1028600001EE104AB8EEC11A01EE200A82ED000A0C
:10287000BDEEC00A10EE102A21F81020401CC0B294
:102880000628D4D310BD00005E100020B400002044
:102890009A99193E9A99593F7047000030B50F2315
:1028A000C27801250178002A1FD0154A126802F467
:1028B000E062C2F5E062C2F30722C2F10404D34031
:1028C0004278A24084781C401443220101F1E021A7
:1028D00081F80024007800F01F018D40400980003D
:1028E00000F1E020C0F8005130BD01F01F0085402C
:1028F0004809800000F1E020C0F8805130BD0000A0
:102900000CED00E0024908430249086070470000EE
:102910000000FA050CED00E02DE9F0418AB0074611
:1029200088460121042000F0E5FD02258DF82450A1
:1029300000248DF82640402008908DF827408DF81F
:102940002550474E08A93046FFF700F8022206211D
:102950003046FFF739F88DF824508DF82640802056
:1029600008908DF827408DF8255008A93046FEF7CD
:10297000EDFF022207213046FFF726F88DF824509C
:102980008DF82640E80108908DF827408DF82550F5
:1029900008A93046FEF7DAFF022208213046FFF789
:1029A00013F88DF824508DF82640280208908DF8F1
:1029B00027408DF8255008A93046FEF7C7FF0222B0
:1029C00009213046FFF700F80121022000F0A0FDA8
:1029D000244D284601F07BF90697ADF81480ADF838
:1029E0001C40ADF816408DF81E4005A9284601F0A0
:1029F000C1FA684601F082FA6020ADF800000120BB
:102A0000ADF80200ADF80C4002946946284601F08A
:102A100063F90821284601F099F90294694628468D
:102A200001F09AF90821284601F0DAF90294694682
:102A3000284601F0DFF90821284601F01DFA02942A
:102A40006946284601F01EFA0821284601F04CFA92
:102A50000121284601F0E6F80AB0BDE8F081000047
:102A6000000802400004004070B5002500212846FF
:102A700000F0EEF80024002000F00CF9641CE4B231
:102A8000802CF8D36D1CEDB2082DEFD370BD000083
:102A90007CB50121022000F02DFD01208DF80400FD
:102AA0008DF806008402009400208DF807000220B3
:102AB0008DF805000A4D69462846FEF747FF0822B3
:102AC000009269462846FEF741FF01220821284668
:102AD000FEF78AFF012221462846FEF785FF7CBDCE
:102AE000000402402DE9F04106460024124D4FF04B
:102AF00080084FF4806728FA04F2324039462846AD
:102B0000FEF772FF012208212846FEF76DFF002222
:102B100008212846FEF768FF641CE4B2082CEAD3BB
:102B2000012208212846FEF75FFF2846BDE8F04154
:102B300000220821FEF758BF0004024070B50122B0
:102B40000B4D940221462846FEF74EFF0122082134
:102B50002846FEF749FF002221462846FEF744FF9B
:102B60002846BDE8704000220821FEF73DBF000066
:102B70000004024070B50A4D4FF4806400222146E3
:102B80002846FEF731FF012208212846FEF72CFFD8
:102B900021462846BDE870400122FEF725BF00000F
:102BA0000004024010B500214FF47A720020401C4E
:102BB0009042FCD3491C9142F8D3FFF769FFAE2045
:102BC00000F057F8D52000F054F8802000F051F8BC
:102BD000A82000F04EF83F2000F04BF8D32000F082
:102BE00048F8002000F045F8402000F042F8A1200D
:102BF00000F03FF8C82000F03CF8DA2000F039F887
:102C0000122000F036F8812000F033F8CF2000F0D9
:102C100030F8D92000F02DF8F12000F02AF8DB2060
:102C200000F027F8302000F024F8A42000F021F86C
:102C3000A62000F01EF88D2000F01BF8142000F0F4
:102C400018F8AF2000F015F8BDE81040FFF70CBFF2
:102C500010B50C4640F0B00000F00BF8102040EA30
:102C6000141000F006F804F00F00BDE81040AFF3B8
:102C7000008010B50446FFF761FF7820FFF732FFB0
:102C80000020FFF72FFF2046FFF72CFFBDE8104084
:102C9000FFF770BF10B50446FFF750FF7820FFF72D
:102CA00021FF4020FFF71EFF2046FFF71BFFBDE876
:102CB0001040FFF75FBF00000449C879012804D124
:102CC0008878FF2801D2401C8870704708000020D7
:102CD00070B5134CE079012821D1FDF7B7FA05460C
:102CE000A17809B1491EA170A07898B9E07888B997
:102CF00000F036F90B48627950F82210A162207971
:102D0000824207D0C86B401CC863E068401CE0608A
:102D1000FDF7B7FA2846BDE87040FDF79BBA70BDD5
:102D2000080000205007002070B5044620780328D2
:102D300001D0012070BDFDF789FA0546A07A60B187
:102D4000002301221946204600F086F82846FDF7A8
:102D500081FA00F0E1F8002070BD20894FF6FF7184
:102D6000884206D2401C20812846FDF773FA0020D5
:102D700070BD2846FDF76EFA332070BD7047000025
:102D80002DE9F04100F054F8FDF760FA274D296B6A
:102D9000491C2963FDF75EFAE879012843D1687A76
:102DA0000126002748B1012809D0022809D00120B6
:102DB0006F72002837D0EC6A31E00120F9E700207B
:102DC000F7E701206E72F4E7FDF740FA216B19B3C3
:102DD000491E216301BB94F8341011F0370F06D05F
:102DE00001F0C80184F8341084F8356001E084F8FB
:102DF000357094F8341009070ED494F83A10AA7973
:102E00001143A971094A94F83810343294F839C042
:102E1000535C43EA0C0353546469FDF71BFA94F8BE
:102E200036003F28D0D1BDE8F08100000800002026
:102E300005490888401C80B20880642803D300201C
:102E4000088000F003B870470400002001480068C3
:102E5000FFF76ABF44000020F0B505460F46A87A88
:102E60001649085C2C18E47A095D01EBC001CEB26A
:102E7000134951F8264000212434E1602760217C69
:102E8000914321746374243C09070BD40D4994F8D1
:102E90003A208B791A438A71343194F839300A5CBC
:102EA0001A430A542946204600F00EF8216A19B147
:102EB000204600F01CF8E5613046F0BDBA58000825
:102EC000500700200800002010B590F8382090F836
:102ED00039408B18DA7AA243DA72002A04D18A7A4E
:102EE00090F83A309A438A720021C16110BD70B5E2
:102EF00010F8384F85784678086809E00319DA7ABF
:102F0000B243DA7212B9827AAA438272091D086842
:102F10000028F3D170BD000070B5FDF797F90546A4
:102F20000D4CA07898B9E07888B900F019F80B48F2
:102F3000627950F82210A1622079824207D0C86BD2
:102F4000401CC863E068401CE060FDF795F9284626
:102F5000BDE87040FDF77EB9080000205007002052
:102F60000649054A8879105C01F134031B5CD25C88
:102F700002EBC00048717047BA58000808000020F2
:102F80003EB55D480290011F0A1FCDE90021131FC5
:102F9000083A5AA16048FDF7CFF9574C103C206819
:102FA000012821D002287CD1606801286ED0022837
:102FB00078D0032875D1594800F056FA574894ED57
:102FC000020A80ED000A94ED030A80ED010A94EDF7
:102FD000040A80ED020A52A1554801F0E1F8BDE86B
:102FE0003E405348FEF722BA606801281CD00228F0
:102FF00033D003287FD14F4800F036FA4D4894ED86
:10300000020A80ED000A94ED030A80ED010A94EDB6
:10301000040A80ED020A42A1454801F0C1F8BDE86A
:103020003E404348FEF702BA434800F01DFA4248CA
:1030300094ED020A80ED000A94ED030A80ED010A86
:1030400094ED040A80ED020A35A1394801F0A8F890
:10305000BDE83E403648FEF7E9B9384800F004FACA
:10306000364894ED020A80ED000A94ED030A80EDE3
:10307000010A94ED040A80ED020A29A12C4801F00E
:103080008FF8BDE83E402A48FEF7D0B92C4800F042
:10309000EBF92B4894ED020A80ED000A94ED030A47
:1030A00001E028E00EE080ED010A94ED040A80EDD5
:1030B000020A1BA11E4801F073F8BDE83E401C48FF
:1030C000FEF7B4B91F4800F0CFF91E4894ED020A8C
:1030D00080ED000A94ED030A80ED010A94ED040AE4
:1030E00080ED020A0EA1124801F05AF8BDE83E40F8
:1030F0000F48FEF79BB93EBD140100205049443AE9
:1031000025643A25643A4B703D25662C4B693D2574
:10311000662C4B643D256600001000202411002021
:103120005375636365737366756C210A0000000054
:103130007810002078110020401100205C11002040
:10314000EC1000200811002010B546494648D1ED8A
:10315000040AC0ED050A454A454B92ED010A93ED7C
:10316000001A20EE010A80ED030A30EEC00AD0ED0D
:10317000060A70EE200AC0ED060A90ED001AD0EDA6
:10318000011A3C4C20EE011A61EEA01AD4ED000A9F
:1031900090ED022A01EEA01AD0ED041A70EE611A29
:1031A00002EE211ABDEEC11A81ED011A80ED040A6A
:1031B00091ED050A1C3080ED050A92ED001AD3ED61
:1031C000001A21EE211A80ED031A30EE410A90ED2B
:1031D000061A30EE011A80ED061AD0ED001A90EDB5
:1031E000012A60EE211A22EE011A41EE201A90ED1A
:1031F000041A30EE410A90ED021A41EE001ABDEEBB
:10320000E10A81ED020A91ED060A1C3080ED050A03
:1032100092ED021AD3ED001A21EE211A80ED031A65
:1032200030EE410A90ED061A30EE011A80ED061AD2
:10323000D0ED001A90ED012A60EE211A22EE011A5B
:1032400041EE201AD0ED040A90ED021A70EE600AE9
:1032500041EE201AFDEEE10AC1ED030A80ED040AF9
:1032600010BD000044010020EC100020BC10002024
:10327000BC5900082001002000B52B4800F0F4F8EC
:1032800029481C3000F0F0F82748383000F0ECF8FE
:103290002548543000F0E8F82348703000F0E4F896
:1032A00021488C3000F0E0F81F48DFED200A543050
:1032B000C0ED000A9FED1E0A80ED010A80ED020AB2
:1032C0009FED1C1A543880ED001A9FED1B1A80EDFB
:1032D000011A9FED1A1A80ED021A7030C0ED000A33
:1032E00080ED010A80ED020ADFED150A5438C0EDC9
:1032F000000ADFED140AC0ED010ADFED130AC0ED8C
:10330000020A7030F0EE000AC0ED000A80ED010AFA
:1033100080ED020A5438F7EE000AC0ED000A80ED95
:10332000010A80ED020A00BDEC10002066666640CE
:1033300000000000CDCC4C3FCDCC4C3DCDCCCC3EA4
:103340009A99193FCDCC4C3E9A99993E10B5404977
:10335000404891ED070A80ED050A3F4AD2ED010A87
:10336000C0ED030A30EE601AD0ED061A31EE211AD4
:1033700080ED061A30EEC00AD0ED000A374B394C0A
:1033800060EE200A90ED010A20EE011A93ED000A8A
:10339000334B41EE400A90ED021AD3ED011A21EEB3
:1033A000211AD4ED001A41EE610AC1ED040A91ED33
:1033B000081A1C3080ED051AD2ED000AC0ED030A90
:1033C00071EE600A90ED061A30EE811A80ED061A51
:1033D000D0ED001A60EEA10AD0ED011A21EE811A9B
:1033E000D3ED001A41EE000A90ED021A21EE211AE7
:1033F000D4ED001A41EE610AC1ED050AD1ED000AD3
:103400001C30C0ED050A92ED021A80ED031A70EE31
:10341000C11A90ED062A71EE821AC0ED061A71EEFD
:10342000600A90ED001A60EE810A90ED011A21EE1B
:10343000211A41EE400A90ED020A93ED021A20EEA5
:10344000010A94ED001A40EE410AC1ED060A10BDD2
:1034500044010020401100206C10002020010020B9
:10346000BC100020BC5900089FED080A80ED030A3B
:1034700080ED060A80ED050A80ED020A80ED010A62
:1034800080ED000A80ED040A704700000000000093
:1034900070B5154A50689060144CB0F5FA6F02D9B7
:1034A0000020907005E091780A304B1C937044F82E
:1034B0002100A069B0F57A7F14D90D4D40F2E734B0
:1034C0002146284600F024FD2146284600F022FD32
:1034D0002146284600F020FD21462846BDE87040E0
:1034E00000F01CBD70BD000084000020E00F002033
:1034F00000040040054A002903D01168014311600F
:1035000070471168814311607047000030380240F5
:10351000054A002903D01168014311607047116802
:10352000814311607047000040380240054A00297D
:1035300003D0116801431160704711688143116025
:103540007047000020380240054A002903D0116866
:10355000014311607047116881431160704700009A
:103560004438024070B5244B196801F00C01234C1B
:1035700000291ED0661004291DD008291DD0046022
:10358000196801F0F00109091D4A545C0168E14025
:1035900041601C6804F4E054A40A145D21FA04F4A8
:1035A00084601B6803F460435B0BD25CD140C16054
:1035B00070BD0460E4E70660E2E70F4A121F11687D
:1035C000C1F38055116801F03F0135B1B6FBF1F14F
:1035D0001468C4F38814614305E0B4FBF1F1146886
:1035E000C4F3881461431268C2F30142521C5200B2
:1035F000B1FBF2F10160C3E7083802400024F40097
:10360000480000207047000010B58A07120F0F23F2
:10361000934021F003040649214401F608010C6897
:103620009C430C600B68904003430B6010BD00008E
:1036300000300140F0B58BB001AC5348D0ED000A2A
:103640009FED520A60EE800AFDEEE00A10EE901A3D
:10365000ADF80810D0ED010A60EE800AFDEEE00A38
:1036600010EE901AADF80A10D0ED020A20EE800A92
:10367000BDEEC00A10EE100AADF80C000020ADF847
:103680000E00ADF810004FF48070ADF812000C225F
:103690003F4DADF804504FF48670ADF80600542647
:1036A0008DF81460022002F1040C0EE02718215C52
:1036B0007B7859404B407B70594021540B44A118F2
:1036C0000F793B440B71801CC0B26045EED3521D94
:1036D0002146304802F09EF8ADF804500C254FF218
:1036E0000C10ADF806002C49642291ED050AFDEEA0
:1036F000C00A10EE900A10FB02F0ADF8080091ED40
:10370000030A6421BDEEC00A10EE100A10FB01F09E
:10371000ADF80A0010EE900A10FB01F0ADF80C00B5
:1037200010EE100A10FB01F0ADF80E001B4991EDF0
:10373000050ABDEEC00A10EE100A10FB02F0ADF84B
:10374000100091ED030A6421BDEEC00A10EE100ACC
:1037500010FB01F0ADF81200267402202F1D0EE0C0
:103760002318215C5A7851404A405A7051402154E4
:103770000A4461190B791A440A71801CC0B2B8421C
:10378000EED30BB0F0BD00006C1000200000C8426A
:10379000AAAAFFFF001001400811002024110020F8
:1037A0000CB50022019200922548016841F4803155
:1037B00001604FF4A043016801F4003100910199C8
:1037C000491C0191009911B901999942F3D10168FD
:1037D000890302D50121009100E00092009901299E
:1037E0002CD1174940310A6842F080520A601549CD
:1037F0000A6842F440420A60114A083211681160B6
:10380000116841F400411160116841F4A051116048
:10381000111F0D4B0B60016841F080710160016860
:103820008901FCD5094940F205700860106820F054
:1038300003001060106840F0020010600CBD000032
:10384000003802400070004008784107003C024008
:10385000401EB0F1807F01D3012070474FF0E0217E
:103860004861044AF0201070002088610720086138
:103870000020704723ED00E010B5FFF71DFAFFF7B9
:103880007FFABDE81040FFF723BA10B500F028F822
:10389000FFF788F901F02EFF4FF4A060FFF732F830
:1038A000FDF758FE3B214FF0FF3000F0A3F9FEF783
:1038B0008FFCFDF765FDFEF70DFEFEF73BFC01F00A
:1038C00023FEFFF7D9FC77214FF6FF7000F034F9A3
:1038D00001210F20FDF790FFBDE81040FEF708B86A
:1038E00070B51D4E306800F00C001C4B1C490028C0
:1038F0000FD05D1004280ED008280ED00B60306861
:10390000174AC0F30310121D105C0A68C2400A6017
:1039100070BD0B60F3E70D60F1E70F4A121F1068EE
:10392000C0F38054106800F03F0034B1B5FBF0F0F4
:103930001368C3F38813584305E0B3FBF0F0136832
:10394000C3F3881358431268C2F30142521C520059
:10395000B0FBF2F00860D2E7083802400024F4001F
:103960005800002010B51248016841F47001016050
:103970001048016841F0010101600E4A002108323F
:10398000116002680C4B1A400260031D0B4A1A605A
:10399000026822F48022026006480C300160FFF7C2
:1039A000FFFE03494FF000608039086010BD000041
:1039B00088ED00E000380240FFFFF6FE10300024E2
:1039C00070B5048C24F001040484058B048C25F06C
:1039D000F3054FF6FF7606EA031313432B4324F057
:1039E0000A020A4342F001010383018470BD70B5ED
:1039F000048C24F010040484058B068C4FF6FF74AD
:103A000004EA011125F4734504EA03332B4304EA65
:103A100002221A4326F0A0030B4343F01001028355
:103A2000018470BDF0B5048C24F480740484868B0A
:103A3000058C4FF6FF7707EA012426F0F30607EA24
:103A400003111143314325F42062224342F4807272
:103A500081830284F0BD70B5048C24F48054048406
:103A6000858B068C4FF6FF7404EA013125F473450B
:103A700004EA02222A4304EA0333134326F42042D1
:103A80000A4342F480518383018470BD70B5AF2234
:103A900021A12648FDF70AFE2448B1221EA12030AC
:103AA000FDF704FE224C234D207800062DD4022180
:103AB000284600F0C5F840B321784FF000064806CC
:103AC0000ED541F080002070284600F0B7F8606005
:103AD0000021284600F034F9FFF7DAFC267014E0E4
:103AE000012060706660402020700021284600F0B0
:103AF00099F80021284600F013FA0221284600F028
:103B00001FF90121284600F08DF82846BDE87040D5
:103B1000032100F084B800002E2E5C686172647787
:103B20006172655C50574D2E63000000C2EF0300C8
:103B300084000020000001402DE9F0418AB00746D2
:103B40000E4601210846FFF7FFFC01210846FFF75A
:103B5000D1FC4FF48070089002258DF8245003208A
:103B60008DF8250000248DF826408DF82750DFF8C9
:103B70007C8008A94046FDF7E9FE01220821404665
:103B8000FDF722FFADF81460ADF816400697ADF8CA
:103B90001C40174F05A9384600F0ECF9ADF8044079
:103BA000ADF806400126ADF80860ADF80A400F20D8
:103BB000ADF80C0001A9384600F04EF801220321AF
:103BC000384600F07AF80121384600F02BF81B2027
:103BD0008DF810008DF811508DF812408DF813609B
:103BE00004A8FEF75BFE0AB0BDE8F08100000240C9
:103BF000000001403EB504460D4601210846FFF78E
:103C000087FC0194ADF800500020ADF80200ADF83B
:103C1000080069464FF0804000F0ACF93EBDC94352
:103C200001827047002904D0018841F00101018020
:103C30007047018821F0010101807047406B704797
:103C400002460020138A0B4092890A40002B02D0C2
:103C5000002A00D00120704770B506460C46258822
:103C60006188A2882389002D0CD0042D13D0082D43
:103C70001AD03046FFF7EFFEE1883046BDE87040CD
:103C800000F06CB93046FFF79BFEE1883046BDE896
:103C9000704000F047B93046FFF7A9FEE188304692
:103CA000BDE8704000F046B93046FFF7BBFEE18842
:103CB0003046BDE8704000F049B9002A03D082893F
:103CC0000A438281704782898A43828170470189D1
:103CD00021F007010181704730B5028C22F001020A
:103CE0000284058C8388028B22F0700222F003028A
:103CF0000C88144325F002028D8915434A882A4313
:103D00000D4DA84202D00D4DA8420FD122F008055A
:103D1000CA892A4322F004058A882A4323F480733F
:103D200023F400730D8A1D434B8A2B438380048345
:103D300089684163028430BD0000014000040140F5
:103D4000028C22F002020A4302847047028B22F0A6
:103D500008020A430283704770B5028C22F01002F9
:103D60000284028C8388048B24F4E04424F440769B
:103D70000D884FF6FF7404EA0525354322F0200232
:103D80008E8904EA061616434A8804EA0212324370
:103D9000114EB04202D0114EB04217D122F0800233
:103DA000CE8904EA0616164326F040068A8804EAFD
:103DB0000212324323F4806323F400630E8A04EA80
:103DC00086061E434B8A04EA8303334383800583BC
:103DD00089688163028470BD0000014000040140D5
:103DE000028B22F400624FF6FF7303EA01211143B4
:103DF0000183704770B5028C22F480720284028CB9
:103E00008388848B24F0700424F003040D882543F8
:103E100022F400728E894FF6FF7404EA06261643D8
:103E20004A8804EA02223243114EB04202D0114EB7
:103E3000B04217D122F40066CA8904EA0222324352
:103E400022F480668A8804EA0222324323F48053F3
:103E500023F400530E8A04EA06161E434B8A04EA32
:103E600003133343838085838968C163028470BDF3
:103E70000000014000040140828B22F008020A4346
:103E80008283704770B5028C22F480520284058CC4
:103E90008288838B23F4E04323F440760C884FF62A
:103EA000FF7303EA0424344325F400558E8903EAA2
:103EB00006362E434D8803EA05353543084EB04299
:103EC00002D0084EB04205D122F480460A8A03EAA5
:103ED000821232438280848389680164058470BDC4
:103EE0000000014000040140828B22F400624FF682
:103EF000FF7303EA01211143818370470021018090
:103F00004180818081608181C181018241827047CD
:103F10004163704781637047C163704701647047B4
:103F200041627047028B22F00C020283028B0A432B
:103F300002837047028B22F440620283028B4FF6A9
:103F4000FF7303EA01210A4302837047828B22F048
:103F50000C028283828B0A4382837047828B22F415
:103F600040628283828B4FF6FF7303EA01210A438A
:103F70008283704730B50288164C174DA0420DD091
:103F8000A8420BD0B0F1804F08D0144B984205D016
:103F9000134B984202D0134B984203D122F0700386
:103FA0004A881A43104B984206D0104B984203D0CF
:103FB00022F440730A891A4302804A68C2620A885E
:103FC0000285A04201D0A84201D1897A018601214F
:103FD000818230BD00000140000401400004004027
:103FE00000080040000C0040001000400014004099
:103FF00070B51B4C4021204600F048F8012803D141
:104000004021204600F032F82021204600F03EF802
:1040100001280ED1204600F0B9F8C1B2114A10882B
:10402000030406D444044FF0000307D50A2901D045
:10403000138070BD40F40040108070BD0D290AD07F
:10404000094DC0F30D042955401C80B21080312861
:10405000F3D9138070BD40F48040108070BD000023
:1040600000100140A0000020001000208A05C94374
:1040700001807047002904D0818941F40051818179
:104080007047818921F400518181704702460020E8
:1040900012880A4200D00120704710B540F66A131A
:1040A000C1F3421301F01F040121A140012B07D0ED
:1040B000022B07D014303AB102680A43026010BDE7
:1040C0000C30F8E71030F6E702688A43026010BD52
:1040D0007FB504460D46208A20F44051E888084305
:1040E0002082A08941F20C618843A9882A89114362
:1040F0006A8902431143A181A08A20F44071A889F2
:104100000843A0826846FFF72DFA1E48844202D079
:104110001D48844201D1039800E00298A189090456
:1041200008D500EBC00101EB001029684900B0FB85
:10413000F1F007E000EBC00101EB001029688900F5
:10414000B0FBF1F06422B0FBF2F109010B096FF052
:1041500018056B4300EB8300A3891D044FF0320365
:1041600007D503EBC000B0FBF2F000F007000843F6
:1041700006E003EB0010B0FBF2F000F00F00084384
:1041800020817FBD00100140001401408088C0F3F1
:1041900008007047C1F3080181807047FEE7000006
:1041A0000FB4084B10B504A902AA039800F008FE4A
:1041B000044602A9002001F09AF9204610BC5DF8DF
:1041C00014FB0000EF54000803B40198410000986C
:1041D00050EAC12018BF04204A0D18BF40F001006A
:1041E00040F2FF72B2EB515F08BF40F002000128BD
:1041F00008BF052002B0704770B5C1482DED020B15
:104200002DED0E8B82B0119D25F000449FEDBEDB9D
:104210009FEDBFEB84423EDBA4F140511098A1F129
:104220007F6108430FD0BC48844202DC28D110983B
:1042300030B39DED100B02B0BDEC0E8B02B0BDE8AB
:10424000704000F0A6BC9DED100B53EC1D2B51EC03
:10425000100BFCF78AFB9DED100B41EC180B53EC97
:104260001E2B51EC100BFCF780FB53EC182BFCF7CA
:10427000D5FA41EC100B02B0BDEC0E8B02B070BD54
:10428000012000F0CDFC02B0BDEC0E8B02B0BDE809
:10429000704000F095BCA1489FEDA18B844256DA96
:1042A0009DED100BB4F1795F0ADA51EC100BFFF7BA
:1042B0008BFF042808BF00F093FC9DED100BDAE79C
:1042C00053EC102B51EC100BFCF74FFB41EC190B8E
:1042D00095480621B0EE490AF0EE690A784400F0EC
:1042E000DCFB53EC192B51EC100BFCF73EFB41ECC3
:1042F0001A0B8E48B0EE490AF0EE690A04217844A0
:1043000000F0CBFB53EC192B51EC100BFCF72DFB01
:1043100053EC182BFCF782FA41EC100B51EC1A0B02
:1043200053EC102BFCF793FBCDE900019DED000B46
:1043300053EC102B9DED100B51EC100BFCF715FB03
:104340009DED101B53EC112BFCF768FAD2E09DEDAC
:10435000100B51EC100B01F0C1F953EC182BFCF7CA
:1043600001FB9FED730BCDE9000153EC102B9DED8C
:10437000000B51EC100BFCF7F8FA41EC190B6E48EE
:104380000621B0EE490AF0EE690A784400F085FB98
:1043900053EC192B51EC100BFCF7E7FA41EC1B0B1B
:1043A0006648B0EE490AF0EE690A0421784400F04C
:1043B00074FB53EC192B51EC100BFCF7D6FA53ECB1
:1043C000182BFCF72BFA41EC1C0B51EC190B01F0EC
:1043D0003DFA41EC180B5A489FED5BABA04222DC42
:1043E00053EC1C2B51EC1B0BFCF731FBCDE900010E
:1043F0009DED000B51EC180B53EC102BFCF7B5FAAC
:1044000053EC182BFCF70AFA53EC1A2BFCF7ADFA15
:1044100053EC1D2BFCF7A3FA53EC1E2BFCF7A2FA6E
:1044200041EC100B5FE08DED008B002000909DEDC6
:10443000000B51EC180B53EC102BFCF7EFF99DED32
:10444000000B41EC1E0B53EC102B51EC100BFCF746
:104450008CFA53EC192BFCF785FA53EC1E2BFCF766
:10446000F6FA41EC190B53EC1C2B51EC1B0BFCF72F
:10447000EEFA41EC1B0B53EC1A2B51EC190BFCF729
:1044800074FA53EC1D2BFCF76DFA41EC190B53EC4D
:104490001A2B51EC180BFCF768FA53EC1B2BFCF7AA
:1044A00064FA53EC192BFCF75AFA9DED000B41EC22
:1044B000180B53EC1A2B51EC100BFCF756FA9FED2E
:1044C000249B53EC192BFCF74DFA41EC100B51ECEB
:1044D000180B53EC102BFCF742FA53EC192BFCF79A
:1044E00041FA41EC100B002D3FF7C5AE51EC100B1B
:1044F00081F0004141EC100BBDE60000000000001F
:104500000000F03F00000000075C143326A6913C39
:10451000182D4454FB21F93F0000F07F0000E03FDC
:10452000000000000000F03FF81600000617000031
:10453000000000000000E03F4A160000581600008E
:104540003333EF3F00000000000000000000004097
:10455000182D4454FB21E93F70B59B482DED020B0B
:104560002DED068B079D25F00044A04218DC9748EE
:10457000844202DC0AD1069840B19DED060BBDECE9
:10458000068B02B0BDE8704000F003BB002DCCBF2D
:104590009FED8F0B9FED900BBDEC068B02B070BDB5
:1045A0008F48A04215DD8F48A042D8BF4FF0FF349E
:1045B00058DD9DED060B51EC100BFFF705FE0428AE
:1045C00008BF00F00DFB9DED060BBDEC068B02B0A5
:1045D00070BD9DED060B51EC100B01F07FF8CDE99D
:1045E000060181489FED828BA0423CDD8248A042BB
:1045F0001FDD00249FED82AB9DED060B53EC1A2BC3
:1046000051EC100BFCF70AF99DED060B41EC190B70
:1046100053EC1A2B51EC100BFCF7A7F953EC182BA9
:10462000FCF79DF953EC192BFCF711FACDE90601C3
:1046300049E09DED060B012453EC182B51EC100BB7
:10464000FCF7ECF89DED060B41EC190B53EC182B25
:1046500051EC100BFCF783F953EC192BFCF7F7F92D
:10466000CDE906012FE06848A0421FDD02249FED3E
:10467000689B9DED060B53EC192B51EC100BFCF7CE
:1046800074F953EC182BFCF7C9F89DED060B41ECBF
:10469000180B53EC192B51EC100BFCF760F953EC91
:1046A000182BFCF7D4F9CDE906010CE09DED060BC3
:1046B000032453EC102B9FED580B51EC100BFCF71F
:1046C000C6F9CDE906019DED060B53EC102B51EC1C
:1046D000100BFCF74AF941EC180B53EC182BFCF7C4
:1046E00044F941EC190B4E480621B0EE490AF0EEB0
:1046F000690A784400F0D1F953EC182B51EC100BF7
:10470000FCF733F941EC180B4648B0EE490AF0EEDD
:10471000690A0521784400F0C0F953EC192B51ECDB
:10472000100BFCF722F941EC100B51EC180B53EC79
:10473000102B002C0EDAFCF771F89DED061B53ECE4
:10474000112BFCF712F99DED061B53EC112BFCF716
:1047500009F935E0FCF762F89DED061B53EC112BCF
:10476000FCF703F941EC100B2F48784400EBC40030
:1047700090ED001B51EC100B53EC112BFCF7EFF8F4
:104780009DED061B53EC112BFCF7E9F841EC100BE7
:104790002648784400EBC40090ED001B51EC100B50
:1047A00053EC112BFCF7DEF841EC100B002DA2BFEF
:1047B000BDEC068B02B070BD51EC100B81F00041D6
:1047C00041EC100B01E70000000010440000F07FF6
:1047D000182D4454FB21F93F182D4454FB21F9BFF7
:1047E0000000DC3F0000203E0000F33F000000001E
:1047F000000000000000F03F0000E63F0000000065
:1048000000000000000000400080034000000000A5
:10481000000000000000F83F000000000000F0BFB2
:104820009A13000050130000DA12000092120000E8
:1048300070B56B4E2DED040B2DED028B82B0DDF8C3
:104840001CC0DDE905235C422CF000411C4341EA19
:10485000D474049D22F00040B44205D86C422C432D
:1048600040EAD474B4420BD99DED061B9DED040BB8
:1048700002B0BDEC028B04B0BDE8704000F093B90B
:10488000ACF14054A4F17F641C430BD0022404EA31
:10489000AC7444EAD27405439FED538B9FED542BC7
:1048A00007D015E09DED040B51EC100B00F024FE39
:1048B00042E0002C11BF012C9DED040B02B0BDECB9
:1048C000028B04BF04B070BD022C38D0032C3BD047
:1048D0000B439FED491B9FED4A0B0AD0B14218D103
:1048E000B04209D121F0804120F08040079105902D
:1048F0000FE0002A15DA10E0434B7B44002C08BF80
:1049000093ED000B0DD0012C10D0022C17D0032CEE
:104910001AD0B0421DD1002A03DAB0EE410AF0EEFF
:10492000610A02B0BDEC028B04B070BD93ED000BC8
:1049300051EC100B81F0004141EC100BF1E7B0EEAF
:10494000480AF0EE680AECE7B0EE420AF0EE620ABE
:10495000E7E7401A00153C28C8BF8DED000B19DCB5
:10496000BCF1000FBEBF10F13C0F9FED290B8DED88
:10497000000B0FDB9DED060B53EC102B9DED040B94
:1049800051EC100BFCF763F800F0A8FE00F0B4FD4A
:10499000CDE90001002C08BF9DED000BC1D0012C1A
:1049A00010D0022C9FED1C0B53EC102B9DED000B37
:1049B00051EC100B0DD0FBF7D2FF53EC182BFBF78B
:1049C000CEFFB9E7019880F0004001909DED000B0B
:1049D000A7E7FBF7C4FF53EC182BFBF7C3FFABE7CC
:1049E0000000F07F00000000182D4454FB21094016
:1049F000182D4454FB2109C0182D4454FB21F9BF44
:104A0000182D4454FB21F93FC211000000000000A2
:104A10000000000000000000075C143326A6A13C43
:104A200000B52DED048BB0EE409AF0EE609A83B0A5
:104A300051EC190BFCF728FA41EC180B18EE100A90
:104A400018EE901A8DED008B002818BF0120084346
:104A500020F00040C0F17F6000F1E040C00F14D0B2
:104A600019EE101A19EE900A8DED009B002918BF5F
:104A70000121084320F00040C0F17F6000F1E040D8
:104A8000C00F04BF012000F0CBF8B0EE480A03B01D
:104A9000F0EE680ABDEC048B00BD70B504462DED48
:104AA000028B4D1E00EBC500B0EE408AF0EE608A2E
:104AB00090ED000B35F0060017D053EC182B51EC9D
:104AC000100BFBF752FF41EC100B6D1E04EBC50001
:104AD00090ED001B51EC100B53EC112BFBF79EFEDD
:104AE00041EC100B35F00600E7D1022D36D0042D35
:104AF0001CD0062D1CBFBDEC028B70BD53EC182BD7
:104B000051EC100BFBF731FF94ED0A1B53EC112B0A
:104B1000FBF784FE53EC182BFBF727FF94ED081BE3
:104B200053EC112BFBF77AFE41EC100B53EC182BD6
:104B300051EC100BFBF719FF94ED061B53EC112BF6
:104B4000FBF76CFE53EC182BFBF70FFF94ED040BF7
:104B500053EC102BFBF762FE41EC100B53EC182BBF
:104B600051EC100BFBF701FF94ED021B53EC112BE2
:104B7000FBF754FE53EC182BFBF7F7FE94ED001BEC
:104B800053EC112BFBF74AFEBDEC028B41EC100BF2
:104B900070BD10B553EC102B51EC100BFBF73EFE23
:104BA00041EC100B10BD10B553EC112B51EC100B58
:104BB000FBF734FE41EC100B10BD000000000000BC
:104BC0009FED050B10B553EC102B51EC100BFBF7C0
:104BD0003EFF41EC100B10BD000000000000000083
:104BE0009FED050B10B553EC102B51EC100BFBF7A0
:104BF000BCFE41EC100B10BD0000000000000010D6
:104C000002E008C8121F08C1002AFAD17047704795
:104C1000002001E001C1121F002AFBD170470000F3
:104C200001490860704700006C0100202DE9FF5F1A
:104C300082B00021DDE90430020DDDF840B003430D
:104C400018D044F61050A2F2FF32424315141198C6
:104C500001281FD0A5EB0B00401C5FEA000A4FF0B3
:104C600000064E4FDFF83891B046504615D5CAF1D0
:104C7000000413E0119801244AA3012801D16FEA2E
:104C80000B010298119AC0E90031C0E9024206B056
:104C9000BDE8F09FCBF10000DFE704460021404A69
:104CA000491842EB0450CDE9001012E0E00707D0AC
:104CB00032463B4640464946FBF757FE804689460A
:104CC00032463B4610461946FBF74FFE06460F4656
:104CD0006410002CEAD1DDE90401DDE90023BAF11A
:104CE000000F06DAFBF741FE42464B46FBF73DFE5E
:104CF00005E0FBF7ACFE42464B46FBF7A8FE044638
:104D00000E460022284BFCF735F903D84FF0FF3050
:104D1000014607E00022254B20463146FBF77EFD89
:104D2000FCF70FF9102409E0002C0ADB0A2200230B
:104D3000FBF771FF039B30321A55641E50EA0102E3
:104D4000F2D1641C039AC4F111031444119A012A8C
:104D500003D0012208430DD10AE0084304D000200B
:104D60004FF0110B119072E7A3EB0B056D1E0DE0D8
:104D70005B4504DD4FF0000205F1010504E003DAB4
:104D80004FF00002A5F10105002AECD0029811991C
:104D9000C0E90231C0E9004579E700000000144095
:104DA0000000F03F300000000000F0430000E03F52
:104DB00030380A2801D201207047002070470000D7
:104DC0002DE9FF4F95B09B468946064600250FE228
:104DD000252877D100242746F84A0121059400E0D0
:104DE000044316F8013F203B01FA03F01042F7D1CB
:104DF00030782A2811D06FF02F033078A0F13002DC
:104E0000092A16D8059A44F0020402EB820203EB49
:104E100042021044761C0590EFE759F8042B0592E6
:104E2000002A03DA504244F40054059044F002048E
:104E3000761C30782E2816D116F8010F44F00404A1
:104E40002A280DD06FF02F023078A0F13003092B03
:104E500009D807EB870302EB4303C718761CF3E777
:104E600059F8047B761C30786C280FD006DC4C286F
:104E700017D068280DD06A2814D104E0742810D007
:104E80007A280FD10DE044F400140AE044F48014B1
:104E900001E044F440147278824202D104F5801497
:104EA000761C761C307866280BD013DC582877D017
:104EB00009DC002875D04528F6D04628F4D04728CC
:104EC0001AD19DE118E0632835D0642879D065288F
:104ED00012D195E1702873D008DC6728F1D06928D9
:104EE0006FD06E280DD06F2806D1B5E073282CD076
:104EF000752875D0782874D05A46179990476D1C3C
:104F000075E1C4F30250022809D003280DD0D9F866
:104F1000001004280DD00D6009F1040967E1D9F8EB
:104F20000010EA17C1E90052F6E7D9F800100D8029
:104F3000F2E70D70F0E719F8041B8DF8001000205F
:104F40008DF80100EA46012003E059F804AB4FF068
:104F5000FF3061074FF0000102D40DE008F10101BC
:104F60008846B9420FDA8045F8DB1AF808100029A4
:104F7000F4D108E008F1010188468142FADB1AF811
:104F800008100029F6D105985B46A0EB08072146DA
:104F90003846179A00F094FA284400EB080507E019
:104FA0004DE029E10DE01AF8010B5A461799904798
:104FB000B8F10108F7D25B4621463846179A13E14B
:104FC00042E00A220092C4F302524FF0000A022A81
:104FD00008D059F804CB032A4FEAEC710AD00DE04F
:104FE00029E02AE009F1070121F00702F2E802C1F5
:104FF000914609E00FFA8CFC4FEAEC71042A03D1C8
:105000004FFA8CFC4FEAEC71002907DA0A460021BE
:10501000DCF1000C61EB02012D2202E0220504D537
:105020002B228DF80420012203E0E20701D0202288
:10503000F7E7904659E00A2102E010220DE0102126
:105040004FF0000A00910BE010224FF0000A44F0EC
:1050500004040827009203E008224FF0000A00929F
:10506000C4F30252022A05D059F804CB0021032AC6
:1050700008D009E009F1070121F00702F2E802C1B6
:10508000914605E01FFA8CFC042A01D10CF0FF0CBC
:105090004FF00008220728D5702806D0009B83F027
:1050A000100353EA0A0305D00EE040228DF80420D5
:1050B000012208E05CEA010206D030228DF80420CB
:1050C0008DF8050002229046009B83F0080353EA06
:1050D0000A030AD15CEA010201D1620705D5302238
:1050E0008DF804204FF001087F1E582804D034A00A
:1050F00003900EA802900DE036A0F9E753466046F3
:10510000009AFBF788FD84460398825C0298401E53
:10511000029002705CEA0100F0D1029806A9081A18
:1051200000F1200A600702D524F4803400E0012752
:10513000574502DDA7EB0A0000E0002000EB0A0162
:10514000009005984144401A0590E00306D45B4660
:105150002146179A059800F0B3F90544002706E0A8
:1051600001A85A46C05D179990476D1C7F1C4745A2
:10517000F6DBE0030CD55B462146179A059800F054
:105180009FF9054404E030205A46179990476D1C5A
:105190000099481E00900029F5DC08E00298029969
:1051A0005A460078491C0291179990476D1CBAF134
:1051B0000001AAF1010AF1DC65E100000928010003
:1051C000303132333435363738396162636465667D
:1051D000000000003031323334353637383941423F
:1051E000434445460000000000F058F90544761C91
:1051F000307800287FF4ECAD19B02846BDE8F08F78
:10520000620700D4062709F1070222F0070CFCE828
:105210000223E14603F000485FEA080C02D00FF2D7
:10522000702C0DE05FEA045C02D50FF2682C07E0F9
:105230005FEAC47C02D00FF2602C01E0AFF2700C88
:105240004FF0FF3823F00043CDF850C065280CD054
:1052500006DC452809D046281DD047283DD13DE031
:10526000662818D067287ED138E00021112F01DB95
:10527000112000E0781CCDE9000106A90EA8FFF777
:10528000D5FCDDE90F010E9A03910021009207F190
:10529000010A04914DE04FF000400097CDE9011064
:1052A00006A90EA8FFF7C2FCDDE90F0203920E9BD0
:1052B00011990022DDF80CA00093049211B9791C19
:1052C00000EB010AB7EB0A0004D4C0F1FF3007F18C
:1052D000010A0490AAEB0700019044E0012F00DAD4
:1052E00001270021112F01DD112000E03846CDE912
:1052F000000106A90EA8FFF799FCDDE90F010E9A3F
:105300000391002104910092BA4621070CD403991D
:10531000514500DA8A46BAF1010F05DD009AAAF17B
:105320000101515C302908D0B84202DA10F1040FB3
:1053300006DA0121CDE9011015E0AAF10101E9E742
:10534000002805DC049901440491AAEB000102E065
:10535000411C514500DD8A460499401A401C0190C9
:105360004FF000400290200704D40198504501DB23
:10537000CDF8048000208DF84F0002980DF14F0702
:10538000B0F1004F25D02B200E9002984FF002086C
:1053900000280CDA404202902D200E9007E00A21EE
:1053A0000298FBF722FC3031029007F8011DB8F19A
:1053B0000001A8F10108F2DC02980028EFD1791E63
:1053C0000E980870307800F0200040F0450007F893
:1053D000020D12A8C01B00F107081498007800B154
:1053E000012000EB0A01019801EBE07105984144AE
:1053F000401A401E0590E00306D45B462146179AEA
:10540000059800F05DF805441498007818B15A46E4
:10541000179990476D1CE00324D55B462146179AE7
:10542000059800F04DF805441CE00498002807DBBF
:10543000DDE90301884203DD0098405C179901E033
:10544000179930205A469047049805F10105401CF1
:1054500004900198401E019004D12E205A461799BD
:1054600090476D1CBAF10001AAF1010ADDDC05E0EC
:1054700017F8010B5A46179990476D1CB8F10001B7
:10548000A8F10108F4DC5B462146179A0598ABE6C3
:105490002D0000002B000000200000002DE9F0414D
:1054A000044600251E461746880404D405E0394604
:1054B0002020B0476D1C641EF9D52846BDE8F08158
:1054C0002DE9F041044600251E469046C80301D54B
:1054D000302700E02027880404D505E041463846FF
:1054E000B0476D1C641EF9D52846BDE8F0810A68F6
:1054F000531C0B601070704710B541EC100BFFF798
:105500002BF851EC100B10BD2DE9FC5F4FF47A70B5
:1055100000F0C8F8524C012220212046FCF764FA22
:10552000642000F0BFF8002220212046FCF75CFA3E
:105530004FF0000A0024002500260027A046A146BF
:1055400000200190009083464648FCF7DFFF454865
:10555000B0F900108A44B0F902100C44B0F90410FC
:105560000D44B0F908100E44B0F90A100F44B0F918
:105570000C0080443C48B0F900108944B0F9042084
:10558000019911440191B0F902100098084400906B
:105590000BF1010BBBF1640FD6DB64209AFBF0F238
:1055A00094FBF0F395FBF0F196FBF0FC97FBF0F722
:1055B00098FBF0F899FBF0F6019C94FBF0F4009D49
:1055C00095FBF0F527482A3802804380A1F58041F9
:1055D0008180A0F806C00781A0F80A8000EE106A5A
:1055E00000EE904AB8EEC00AB8EEE01A00EE904A1B
:1055F00020EE000AF8EEE00A01EE200A00EE905AD2
:10560000B8EEE01A00EE905AF8EEE00A01EE200A39
:1056100010EE100AFBF7BAFA41EC100BFFF700FA94
:1056200051EC100BFBF793FA96FBF0F100EE101A19
:105630000D49B8EEC00A103981ED010A94FBF0F271
:1056400000EE102AB8EEC00A81ED020A95FBF0F0D8
:1056500000EE100AB8EEC00A81ED030ABDE8FC9F17
:10566000000002405E100020B400002070B5034628
:105670004FF6FF7041F22105044610E013F8012BAC
:1056800080EA02200822060403D504EA40006840AC
:1056900001E004EA4000521E002AF4D1491E00290C
:1056A000ECD170BD10B504460B4801684FF47A7018
:1056B000B1FBF0F0FEF7CCF800214FF0E02203E060
:1056C0001369DB03FCD5491CA142F9D3106920F012
:1056D0000100106110BD00005800002082B0CDE92B
:1056E000000121F0004001909DED000B02B051EC53
:1056F000100B70471CB501210846FDF7FBFE012089
:105700008DF8040000208DF80600202100918DF80E
:10571000070003208DF8050069460248FCF716F9DA
:105720001CBD0000000002402DED028B84B0FEF78E
:10573000ACF86846FDF716FF2A4D2B4E4EF6037A5D
:105740004EF6237B4FF08044284F9FED298ADFF8E7
:10575000A480DFF8A490FCF70BFFFCF7DFFF308894
:1057600000040CD52878502807D16878492804D13E
:10577000A878442801D1FDF703FC002030802A22BC
:105780001EA15046FBF792FFFDF72EF82E221BA11B
:105790005846FBF78BFF606A386000EE100AB8EEDF
:1057A000C00AC0EE080AC8ED000A00212046FEF734
:1057B00039FA00212046FEF7B3FB01212046FEF70F
:1057C00031FA12491248FCF715F9FDF7BFFDFDF754
:1057D000BBFCD9F80800A0F5FA70FCF743FFFDF711
:1057E00029FFB8E700100020A000002000000020E2
:1057F0000024744920010020E00F00202E2E5C754B
:105800007365725C6D61696E2E6300006C10002020
:105810004C1000202DE9F04107460D461646402168
:105820003846FEF723FC01240CE015F9010B81B288
:105830003846FEF7AFFC40213846FEF727FC01282A
:10584000F9D1641CB442F0DDBDE8F08100B52DED66
:10585000048B83B041EC190BFBF716FB41EC180BE2
:1058600018EE100A18EE901A8DED008B002818BF64
:105870000120084320F00040C0F17F6000F1E040CB
:10588000C00F14D019EE101A19EE900A8DED009B7E
:10589000002918BF0121084320F00040C0F17F60BB
:1058A00000F1E040C00F04BF0120FFF7B9F951EC4F
:1058B000180B03B0BDEC048B00BD0000010002001A
:1058C00001000300010002000100040001000200C9
:1058D00001000300010002000100050001000200B8
:1058E00001000300010002000100040001000200A9
:1058F0000100030001000200010006000100020097
:105900000100030001000200010004000100020088
:105910000100030001000200010005000100020077
:105920000100030001000200010004000100020068
:105930000100030001000200010007000100020055
:105940000100030001000200010004000100020048
:105950000100030001000200010005000100020037
:105960000100030001000200010004000100020028
:105970000100030001000200010006000100020016
:105980000100030001000200010004000100020008
:1059900001000300010002000100050001000200F7
:1059A00001000300010002000100040001000200E8
:1059B000010003000100020001000000E12E654229
:1059C0000100010140000000C0110020C0150020AE
:1059D0004016002000000000555555555555C53F4F
:1059E0007D6FEB0312D6D4BF5544880E55C1C93F15
:1059F0003B8F68B52882A4BF88B20175E0EF493FAC
:105A000009F7FD0DE13D023F4B2D8A1C273A03C0EB
:105A1000C88A599CE52A004059018D1B6C06E6BFD7
:105A200082922EB1C5B8B33F4FBB610567ACDD3F75
:105A3000182D4454FB21E93F9BF681D20B73EF3FB5
:105A4000182D4454FB21F93FE2652F227F2B7A3C2D
:105A5000075C143326A6813CBDCBF07A8807703CE6
:105A6000075C143326A6913CC4EB98999999C9BF59
:105A7000711623FEC671BCBF6D9A74AFF2B0B3BF8E
:105A80009AFDDE522DDEADBF2F6C6A2C44B4A2BF4E
:105A90000D5555555555D53FFF8300922449C23FBA
:105AA0006E204CC5CD45B73F513DD0A0660DB13FEE
:105AB000EB0D76244B7BA93F11DA22E33AAD903F00
:105AC0000000000000000000DDDDDDDDDCBBBBDD33
:105AD000DDDDDDDDDDDDDDDD98888888888888888E
